:1000000000800020551400008114000081140000BD
:10001000811400008114000081140000811400008C
:10002000811400008114000081140000811400007C
:10003000811400008114000081140000811400006C
:10004000610E000081140000811400008114000082
:10005000811400008114000081140000811400004C
:10006000811400008114000081140000E9020000E6
:10007000811400008114000081140000811400002C
:10008000811400008114000081140000811400001C
:10009000811400008114000081140000811400000C
:1000A00081140000811400008114000081140000FC
:1000B00081140000811400008114000081140000EC
:1000C00081140000811400008114000081140000DC
:1000D00081140000811400008114000081140000CC
:1000E00010B5054C237833B9044B13B10448AFF372
:1000F00000800123237010BD740000200000000068
:10010000DC16000008B5064B1BB106480649AFF3E4
:1001100000800648036813B1054B03B1984708BD3A
:1001200000000000DC1600007800002070000020B5
:1001300000000000154B002B08BF134B9D46A3F594
:10014000803A00218B460F461348144A121A01F0D8
:10015000A1FA0F4B002B00D098470E4B002B00D07C
:1001600098470020002104000D000D48002802D00F
:100170000C48AFF3008001F067FA2000290000F07E
:1001800027F901F04DFA00BF0000080000800020B0
:100190000000000000000000740000209400002017
:1001A000000000000000000080B483B000AF0346F0
:1001B000FB71084B97F907205209F97901F01F01EB
:1001C000012000FA01F143F822100C37BD465DF81A
:1001D000047B704700E100E080B483B000AF78603A
:1001E000044B7A68C3F81C210C37BD465DF8047BCC
:1001F000704700BF0060004080B483B000AF03468A
:100200003960FB71FB79002B0DD0FB79012B0AD0F3
:10021000FB79022B07D0FB79032B04D0FB79042B4D
:1002200001D0FB79052B0948FA793B68012101FAD5
:1002300003F319461346DB0013449B0003441033B9
:1002400059600C37BD465DF8047B70470060004084
:1002500080B483B000AF03463960FB71FB79002B9B
:100260000DD0FB79012B0AD0FB79022B07D0FB794B
:10027000032B04D0FB79042B01D0FB79052B094813
:10028000FA793B68012101FA03F319461346DB00B2
:1002900013449B000344103319600C37BD465DF8CE
:1002A000047B70470060004080B582B000AF0C4B0B
:1002B0001B687B603B46184601F092F87B681B0E7A
:1002C0000F2B0AD93B78032B07D1064B054A12683E
:1002D00022F0500242F010021A600837BD4680BD7D
:1002E000FC81E00FC0800C4080B582B000AF4FF4BD
:1002F0000070FFF771FF354B72225A62334B0122B7
:100300005A6000BF314B9B6A03F04003002BF9D0C9
:100310002E4B40221A632D4BAC225A6200BF2B4B4E
:100320009B6A03F04003002BF9D0284B40221A634C
:10033000264B01225A60254B73225A6200BF234B81
:100340009B6A03F04003002BF9D0204B40221A6334
:1003500000BF1E4B9B6A03F02003002BF9D01B4B00
:10036000DB69FB80194B04225A6000BF174B9B6A64
:1003700003F02003002BF9D0144BDB69BB80134B37
:1003800008225A60BB881B029AB2FB8813439BB2B7
:100390007B800E4B02225A6000BF0C4B9B6A03F419
:1003A0008073002BF9D0094B4FF480721A637B885D
:1003B0000E2B04D804200221FFF74AFF03E004209B
:1003C0000221FFF719FF0837BD4680BD00A4004099
:1003D00080B500AFFFF768FF00F00AF800F024F8DE
:1003E00000F026F900F0D6F80023184680BD00BFC3
:1003F00080B500AF0848012100F02CFB074801211F
:1004000000F028FB0648012100F024FB05480121EB
:1004100000F020FB80BD00BF00C2040000D2040039
:10042000004302004081040090B587B000AF2A4B22
:100430003C460FCB84E80F00022005210B2201234C
:1004400000F062FE022004210B22012300F05CFE7A
:10045000224B03229A633B462048194600F084FF52
:100460001E4B9B6803F00103002B02D01B4B202284
:100470005A6000237B610EE0022005210822002340
:1004800000F042FE022005210822012300F03CFE7C
:100490007B6901337B617B69082BEDDD0F4B0F4AD4
:1004A000526B42F040025A630C4B0C4A526B42F0C2
:1004B00080025A63094B094A526B42F020025A6388
:1004C00000233B6102E03B6901333B613B69092B3F
:1004D000F9DD1C37BD4690BDC016000000A40040E9
:1004E00080B485B000AF02460B46FA71BB71FB7950
:1004F00063F07F03FB727223BB72254BBA7A5A6298
:100500000023FB6002E0FB680133FB60FB68B3F58E
:10051000967FF8DB1E4B01225A601D4B01221A63A5
:1005200000BF1B4B9B6A03F04003002BF9D0184B14
:1005300040221A63164BFA7A5A6200BF144B9B6A28
:1005400003F04003002BF9D0114B40221A63104BEB
:10055000BA795A6200BF0E4B9B6A03F04003002B2E
:10056000F9D00B4B40221A63094B02225A6000BF9C
:10057000074B9B6A03F48073002BF9D0044B4FF4B4
:1005800080721A631437BD465DF8047B704700BF64
:1005900000A4004080B582B000AF1123FB7003209F
:1005A0000021FFF755FE00237B6002E07B680133EA
:1005B0007B607B68B3F5967FF8DB00200321FFF7B3
:1005C0008FFF01200121FFF78BFF02200F21FFF792
:1005D00087FF03200021FFF783FF04200021FFF79E
:1005E0007FFF05200821FFF77BFFFB7806201946D7
:1005F000FFF776FF00F004F80837BD4680BD00BF66
:1006000080B582B002AF032001210122012300F056
:100610007BFD01230093012301930320012101228B
:10062000002300F00BFD0B20FFF7BEFDBD4680BD93
:1006300080B500AF042002210422002300F064FDF5
:10064000032000210422002300F05EFD80BD00BFD6
:1006500080B487B000AFF860B9607A60FB6803F1DE
:100660000473DA00BB6813449B007B617B697A6882
:100670001A601C37BD465DF8047B704780B485B0B6
:1006800000AF786039607B6803F10473DA003B687F
:1006900013449B00FB60FB681B6818461437BD467B
:1006A0005DF8047B704700BF80B485B000AF786010
:1006B0007B68002B04D07B68B3F5004F00D800BFE7
:1006C0007B68B3FA83F3C3F11F03FB60FB68184632
:1006D0001437BD465DF8047B704700BF80B400AF9F
:1006E000044BDB6C1B0EDBB21846BD465DF8047B89
:1006F000704700BFB081E00F80B400AF054BDB6CEA
:1007000003F47F031B0CDBB21846BD465DF8047B87
:10071000704700BFB081E00F80B582B000AFFFF737
:10072000EBFF03464A2B04D0792B02D0482B22D072
:1007300023E0144B1B699BB203F03F039BB21B02E7
:10074000FB80104B9B699BB203F0F0039AB2FB88CD
:100750001343FB800B4BDB6903F0F0031B099AB2D8
:10076000FB881343FB80FB88B3F5017F01D3064B65
:1007700004E0064B02E0054B00E000231846083772
:10078000BD4680BDD0FF0FE000366E010048E80195
:1007900080B584B000AF786039607A683B689A426F
:1007A00094BF00230123DBB2FB6006481E21FA68D8
:1007B000FFF74EFF04480821FA68FFF749FF10379A
:1007C000BD4680BD00800C4004800C4080B582B0E6
:1007D00000AF07481E21FFF751FF78600548082148
:1007E000FFF74CFF38607B6818460837BD4680BD70
:1007F00000800C4004800C4080B582B000AF214BDB
:100800005B6903F4E063B3F5007F1CD0B3F5007FB0
:1008100005D8002B25D0B3F5807F1FD02AE0B3F593
:10082000C06F24D0B3F5E06F1ED0B3F5407F21D167
:10083000FFF754FF0346122B02D9134B7B601CE0D9
:10084000124B7B6019E0FFF749FF0346122B02D9D8
:100850000F4B7B6011E00F4B7B600EE00E4B7B601B
:100860000BE00E4B7B6008E00D4B7B6005E00D4B11
:100870007B6002E000237B6000BF7B68184608377E
:10088000BD4680BD00800C40804F120040420F00EA
:1008900040B56400C0CF6A00C0D8A700809FD500D3
:1008A000406F4001003FAB0180B582B000AF0D4802
:1008B00000F028FA0346FB70FB78072B05D0082BC5
:1008C00007D100F007FE786006E0FFF795FF78603B
:1008D00002E000237B6000BF7B6818460837BD46F6
:1008E00080BD00BF06000C0090B585B000AF7860F9
:1008F0000023BB607B68344A934203D0334A93425F
:1009000000D000E000BF786800F0FCF90346FB600F
:100910007B682D4A934203D02C4A934206D00CE0C8
:100920002B4B9B6A03F00303FB6006E0284B9B6A9A
:1009300003F00C039B08FB6000BFFB68032B3AD855
:1009400001A252F823F000BF7F09000059090000FE
:10095000610900006909000000F042FEB8602DE066
:1009600000F052FEB86029E000F09AFD0446FFF75F
:100970002DFF0346013324FA03F3BB601EE000237E
:10098000BB607A68104B9A4203D07A680F4B9A4248
:1009900010D10F4B9A6A79680B4B994201D1102301
:1009A00000E0142322FA03F3002B03D000F022FE10
:1009B000B86003E002E00023BB6000BFBB681846DC
:1009C0001437BD4690BD00BF0200180003001A0096
:1009D00000800C4080B483B000AF7860094B5B6D41
:1009E00003F00103002B00D006E000BF054B1A6D99
:1009F0007B681340002BF9D10C37BD465DF8047BB2
:100A0000704700BF00800C4080B582B000AF104836
:100A100000F078F90346FB70FB78032B07D0082B16
:100A200009D0022B0BD100F0EFFD78600AE000F056
:100A3000D7FD786006E000F04DFD786002E000230D
:100A40007B6000BF7B6818460837BD4680BD00BF8D
:100A50000723200090B587B000AF78600B46FB708D
:100A600000233B617B681B0A03F00F03013B092B4A
:100A700049D801A252F823F0BD0A0000C30A0000C1
:100A8000A10A0000070B0000070B0000C90A0000C4
:100A9000D30A0000070B0000070B0000DD0A00006E
:100AA0001B4B7B611B4800F041F80446FFF734FE06
:100AB000034620461946FFF76BFE12E0164B7B619A
:100AC0000FE0164B7B610CE0154B7B6101233B6112
:100AD00007E0144B7B6110233B6102E0124B7B610A
:100AE00000BF7B681B0B03F01F03FB603B69002BFF
:100AF00002D03869FFF76EFFFB787869F9681A460B
:100B0000FFF7A6FD00E000BF1C37BD4690BD00BF4B
:100B100040800C400043020008800C4044800C40A0
:100B200058800C4060800C4078800C4090B585B0B7
:100B300000AF78607B6803F47813B3F5A01F00F072
:100B4000AB80B3F5A01F1AD8B3F5402F00F0BF80DB
:100B5000B3F5402F08D8B3F5003F3CD0B3F5802F54
:100B60002DD0002B27D0BEE0B3F5801F3CD0B3F5CD
:100B7000901F47D0B3F5602F00F0AD80B3E0B3F520
:100B8000001F00F0AC80B3F5001F0AD8B3F5C01FFA
:100B900025D0B3F5D01F7AD0B3F5B01F00F089800F
:100BA000A1E0B3F5181F4ED0B3F5201F62D0B3F506
:100BB000101F35D097E000F08DFCF86096E000F053
:100BC00089FCF8604C4B9B6803F00F03FA6822FA2B
:100BD00003F3FB608AE000F063FCF86086E04748BE
:100BE000FFF782FEF86081E04448FFF77DFEF86081
:100BF000414B9B6E03F0F0031B09FA6822FA03F3E2
:100C0000FB6073E03D48FFF76FFEF8603A4B9B6E68
:100C100003F470631B0AFA6822FA03F3FB6065E0D1
:100C20003648FFF761FEF860334B9B6E03F4405388
:100C30001C0B1020FFF738FD03462344FA6822FA04
:100C400003F3FB6052E02D48FFF74EFEF8602A4B9D
:100C50009B6E03F440531B0BFA6822FA03F3FB600C
:100C6000254BDB6F03F007030133FA68B2FBF3F3A4
:100C7000FB603BE02148FFF737FEF8601E4B9B6EA0
:100C800003F00303FA6822FA03F3FB602EE01C482A
:100C9000FFF72AFEF86029E01948FFF725FEF86003
:100CA000154B1B6F03F00303FA6822FA03F3FB6092
:100CB0001CE01348FFF718FEF8600F4B1B6F03F0A2
:100CC00030031B09FA6822FA03F3FB600EE0FFF71A
:100CD000EBFDF8600AE0FFF78FFDF86006E0FFF734
:100CE00093FEF86002E00023FB6000BFFB6818463B
:100CF0001437BD4690BD00BF00800C4002001800B4
:100D000003001A0080B485B000AF78600123FB7344
:100D10007B6803F00F03BB60BB68013B062B00F24E
:100D2000938001A252F823F0450D00007B0D0000D6
:100D3000B70D0000490E0000490E0000F30D000041
:100D4000150E0000454BDB6A03F47053B3F5805F6A
:100D500009D0B3F5005F03D0B3F5006F06D008E00B
:100D60000223FB7308E00323FB7305E00423FB73FA
:100D700002E00523FB7300BF69E0384B9B6A03F078
:100D80000303022B06D0032B07D0012B08D103232A
:100D9000FB730FE00223FB730CE00623FB7309E0F7
:100DA0002E4B9B6A03F48033002B02D00923FB7384
:100DB00000E000BF4BE0294B9B6A03F00C03082BBB
:100DC00006D00C2B07D0042B08D10323FB730FE0B4
:100DD0000223FB730CE00623FB7309E01F4B9B6AA5
:100DE00003F48013002B02D00923FB7300E000BF43
:100DF0002DE01A4B1B6803F08053002B03D0B3F196
:100E0000805F03D023E00723FB7302E00823FB731A
:100E100000BF1CE0114BDB6A03F46033B3F5803F85
:100E200008D0B3F5003F08D0B3F5004F08D1082330
:100E3000FB7308E00223FB7305E00323FB7302E06E
:100E40000123FB7300BF02E00023FB7300BFFB7BA9
:100E500018461437BD465DF8047B704700800C408F
:100E600080B58AB000AF334B03F580531B68BB617C
:100E7000304B03F580530C331B68BA691340BB61D8
:100E80002C4B9B6B7B61BA697B6913403B620023EF
:100E9000FB6149E000237B623BE03B6A03F0010316
:100EA000002B30D0234B9B683B6101227B6A02FA06
:100EB00003F3FB601F4B03F580530833FA681A6095
:100EC0007B6A1B013A691344DB68BB60BB68002B7B
:100ED00019D0BB681B7A7B60BB681B7A83F0010367
:100EE000DAB2BB681A72BB681B68002B0BD0BB68F8
:100EF0001B68786A7A68002A0CBF00220122D1B2EE
:100F0000BA68526898473B6A5B083B627B6A013368
:100F10007B623B6A002BC0D17B69DA43BB6913401B
:100F20003B62FB690133FB61FB69012BB2DD2837B2
:100F3000BD4680BD00200C4080B487B000AFF86093
:100F4000B9607A60FB6803F10473DA00BB6813448C
:100F50009B007B617B697A681A601C37BD465DF82F
:100F6000047B704780B485B000AFF860B9607A60E8
:100F7000FB681A68BB68DB431A407B681A43FB684E
:100F80001A601437BD465DF8047B704780B483B0A7
:100F900000AF03463960FB71FB79002B0DD0FB7964
:100FA000012B0AD0FB79022B07D0FB79032B04D04D
:100FB000FB79042B01D0FB79052B0948FA793B68B2
:100FC000012101FA03F319461346DB0013449B0089
:100FD0000344103359600C37BD465DF8047B7047FD
:100FE0000060004080B483B000AF03463960FB71FD
:100FF000FB79002B0DD0FB79012B0AD0FB79022B5A
:1010000007D0FB79032B04D0FB79042B01D0FB79AB
:10101000052B0948FA793B68012101FA03F31946C7
:101020001346DB0013449B000344103319600C3754
:10103000BD465DF8047B70470060004080B586B017
:1010400000AFB9607A600246FA73BB73FB7B002B7A
:101050000DD0FB7B012B0AD0FB7B022B07D0FB7B47
:10106000032B04D0FB7B042B01D0FB7B052BBB683F
:10107000072B0ED8BB689B0007229A40F97BBB6800
:101080009B0001FA03F31A4811461A46FFF76AFF5C
:1010900010E0BB68083B7B617B699B0007229A409C
:1010A000F97B7B699B0001FA03F3124811461A464B
:1010B000FFF758FFBB7B1048B9681A46FFF73CFFA3
:1010C00097F820300D48B9681A46FFF735FF0C4BEA
:1010D000BA68012101FA02F2C3F81C2197F8243002
:1010E0000848B9681A46FFF727FF1837BD4680BD84
:1010F0000061004004610040086100400C61004054
:10110000006000401061004090B585B000AFB9604C
:101110007B600346FB731346BB73FB7B002B0DD038
:10112000FB7B012B0AD0FB7B022B07D0FB7B032B25
:1011300004D0FB7B042B01D0FB7B052BBB7B002B5E
:101140000DD07B68002B05D0FB7B1846B968FFF7F4
:1011500049FF04E0FB7B1846B968FFF717FFBB683F
:10116000072B1DD82B48FA7B2A4CF97B0B46DB005A
:101170000B449B0023445968BB689B000F2404FA6E
:1011800003F3DB431940BC7BBB689B0004FA03F309
:1011900019431346DB0013449B000344596024E0C9
:1011A0001C48FA7B1B4CF97B0B46DB000B449B0075
:1011B000234408331968BB6803F18043083B9B0054
:1011C0000F2404FA03F3DB431940BC7BBB6803F133
:1011D0008043083B9B0004FA03F319431346DB00EA
:1011E00013449B00034408331960BB7B002B0DD1D3
:1011F0007B68002B05D0FB7B1846B968FFF7F2FE31
:1012000004E0FB7B1846B968FFF7C0FE1437BD4603
:1012100090BD00BF0060004080B487B000AFF860B0
:10122000B9607A60FB6803F10473DA00BB681344A9
:101230009B007B617B697A681A601C37BD465DF84C
:10124000047B704780B485B000AFF860B9607A6005
:10125000FB681A68BB68DB431A407B681A43FB686B
:101260001A601437BD465DF8047B704780B588B0BE
:1012700000AFF860B9607A60FB707B68002B00D12A
:101280005EE0FB681B6823F44072FB681A60FA6832
:10129000FB781B0210464FF440711A46FFF7D2FF4D
:1012A000BB68002B03D12848FFF740FCB8604FF023
:1012B000FF33BB61FB681B6803F00203002B11D0F6
:1012C000FB78012B07D0022B08D0002B00D019E0AF
:1012D0001E4BBB6105E01E4BBB6102E01D4BBB61B9
:1012E00000BF0FE0FB78012B06D0022B07D0002BAC
:1012F00008D1194BBB6105E0184BBB6102E0184BEC
:10130000BB6100BFFB78174AD35C7B617B689B00A5
:10131000BA68D21A7B69796801FB03F3B2FBF3F375
:10132000013BFB61FB681B6803F00203002B04D048
:10133000FB69002B01D10123FB61FA69FB681A618B
:101340002037BD4680BD00BF4081040040164000EC
:10135000C0D8A7008050740180841E0040548900CA
:10136000002D3101D016000080B582B000AF78604A
:1013700039607A68174B9A4203D07A68164B9A42C2
:1013800000D100BF7B6800225A637B68134A1A634E
:101390007A683B685B78002B01D0002300E00123D2
:1013A000104601211A46FFF737FF3B6859683B6832
:1013B0009A683B681B7B7868FFF758FF7A683B6840
:1013C0001B78104600211A46FFF726FF0837BD4656
:1013D00080BD00BF00A0004000A40040CFFF01007E
:1013E00080B485B000AF7860194B5B69DBB203F065
:1013F0000F03DBB29B00FB73154B1B6903F0C003AB
:101400009B09DAB2FB7B1343FB737B68FA7B9A7010
:101410000F4B1B69DBB203F03F03DAB27B685A70F3
:101420000B4B9B69DBB223F00F03FB73084BDB69AB
:1014300003F0F0031B09DAB2FB7B1343FB737B68F9
:10144000FA7B1A701437BD465DF8047B704700BF05
:10145000D0FF0FE0064880470649074A074B9A42EB
:10146000BEBF51F8040B42F8040BF8E7FEF762FE2A
:10147000D5150000E81600000000002074000020D0
:10148000FEE700BF80B400AF044BDB6C1B0EDBB289
:101490001846BD465DF8047B704700BFB081E00F81
:1014A00080B582B000AF00F015F87860074B5B683C
:1014B00003F00F037A6822FA03F37B60044B7A6827
:1014C0001A607B6818460837BD4680BD00800C4016
:1014D0009000002080B582B000AF334BDB6A03F48C
:1014E0007053B3F5805F0AD0B3F5005F03D0B3F556
:1014F000006F08D00BE02D4B1B687B6047E04FF47A
:1015000000437B6043E02A4B1B687B603FE0264B37
:10151000DB6803F4E063B3F5007F1BD0B3F5007F15
:1015200005D8002B24D0B3F5807F16D02BE0B3F57F
:10153000806F09D0B3F5A06F03D0B3F5407F06D01C
:1015400021E01C4B7B6021E01B4B7B601EE01B4BB2
:101550007B601BE01A4B7B6018E0FFF793FF0346AC
:10156000122B02D9174B7B6010E0174B7B600DE00C
:10157000FFF788FF0346122B02D9144B7B6005E06E
:10158000134B7B6002E000237B6000BF00BF064B73
:101590001B6803F4E0339B0B01337A68B2FBF3F36F
:1015A00018460837BD4680BD00800C40040000206E
:1015B00000000020003FAB01406F4001809FD5003C
:1015C000C0D8A70040B56400C0CF6A00804F1200A9
:1015D00040420F0080B400AFBD465DF8047B704709
:1015E00080B400AF4FF400431846BD465DF8047B5D
:1015F000704700BF80B400AF4FF47A731846BD4601
:101600005DF8047B704700BF80B400AF034B1B68DC
:101610001846BD465DF8047B704700BF04000020FB
:1016200008B5074B044613B10021AFF30080054B0A
:101630001868836A03B19847204600F033F800BF6A
:1016400000000000D816000070B50E4B0E4D0024AF
:10165000ED1AAD101E46AC4204D056F82420904737
:101660000134F8E700F020F8084D094B0024ED1A8A
:10167000AD101E46AC4204D056F8242090470134E9
:10168000F8E770BD68000020680000206C000020B2
:101690006800002002440346934202D003F8011B75
:1016A000FAE77047FEE700BFF8B500BFF8BC08BC1A
:1016B0009E467047F8B500BFF8BC08BC9E46704710
:1016C0000101000000000000606701000000000050
:1016D0000809110843000000080000200000000075
:0816E00054EAFF7F0100000045
:1016E800006CDC0200800000000000000000000028
:1016F80000000000000000000000000000000000E2
:101708000000000000000000D416000000000000E7
:1017180000000000000000000000000000000000C1
:1017280000000000000000000000000000000000B1
:1017380000000000000000000000000000000000A1
:10174800000000000000000005010000E1000000AA
:04175800000000008D
:040000030000145590
:00000001FF
