:1000000000800020591400008514000085140000B1
:10001000851400008514000085140000851400007C
:10002000851400008514000085140000851400006C
:10003000851400008514000085140000851400005C
:10004000ED0F0000851400008514000085140000E9
:10005000851400008514000085140000851400003C
:10006000851400008514000085140000851400002C
:10007000851400008514000085140000851400001C
:10008000851400008514000085140000851400000C
:1000900085140000851400008514000085140000FC
:1000A0008514000085140000AD02000085140000D6
:1000B00085140000851400008514000085140000DC
:1000C00085140000851400008514000085140000CC
:1000D00085140000851400008514000085140000BC
:1000E00010B5054C237833B9044B13B10448AFF372
:1000F00000800123237010BD740000200000000068
:10010000F816000008B5064B1BB106480649AFF3C8
:1001100000800648036813B1054B03B1984708BD3A
:1001200000000000F8160000780000207000002099
:1001300000000000154B002B08BF134B9D46A3F594
:10014000803A00218B460F461348144A121A01F0D8
:10015000B9FA0F4B002B00D098470E4B002B00D064
:1001600098470020002104000D000D48002802D00F
:100170000C48AFF3008001F07FFA2000290000F066
:10018000A3F801F065FA00BF00000800008000201D
:100190000000000000000000740000209800002013
:1001A000000000000000000080B483B000AF0346F0
:1001B000FB71084B97F907205209F97901F01F01EB
:1001C000012000FA01F143F822100C37BD465DF81A
:1001D000047B704700E100E080B483B000AF0346C9
:1001E0003960FB71FB79002B0DD0FB79012B0AD014
:1001F000FB79022B07D0FB79032B04D0FB79042B6E
:1002000001D0FB79052B0948FA793B68012101FAF5
:1002100003F319461346DB0013449B0003441033D9
:1002200059600C37BD465DF8047B704700600040A4
:1002300080B582B000AF0C4B1B687B603B46184614
:1002400001F0D0F87B681B0E0F2B0AD93B78032BEB
:1002500007D1064B054A126822F0500242F0100204
:100260001A600837BD4680BDFC81E00FC0800C409D
:1002700080B483B000AF786039607B683A689A6276
:100280000C37BD465DF8047B704700BF80B483B077
:1002900000AF786039607B68DA6A3B681A437B6834
:1002A000DA620C37BD465DF8047B704780B500AF5D
:1002B00004480121FFF7DCFF04200221FFF78CFF37
:1002C00080BD00BF0020084080B584B000AFFFF7BC
:1002D000AFFF00200121012200F028FE2948012162
:1002E00000F0C2FA2848012100F0BEFA2748022196
:1002F00000F0C0FC2648012100F0B6FA04200221DB
:100300000422002300F044FF01233B7100237B7192
:100310000023BB710023FB7100233B7200237B721F
:100320000023BB720023FB7200233B7300237B730B
:100330000023BB7317480221FFF7A8FF15480121CE
:10034000FFF7A4FF1A20FFF72FFF124800214FF4F8
:10035000004200F0A5FF0F48012140F2666200F064
:100360009FFF3B1D0B48194600F0C6FF094B094A89
:10037000126842F400721A60002318461037BD4616
:1003800080BD00BF00D2040000430200020018003C
:10039000602612000020084080B487B000AFF860EB
:1003A000B9607A60FB6803F10473DA00BB68134438
:1003B0009B007B617B697A681A601C37BD465DF8DB
:1003C000047B704780B485B000AF786039607B688B
:1003D00003F10473DA003B6813449B00FB60FB6885
:1003E0001B6818461437BD465DF8047B704700BF94
:1003F00080B485B000AF78607B68002B04D07B6848
:10040000B3F5004F00D800BF7B68B3FA83F3C3F1A4
:100410001F03FB60FB6818461437BD465DF8047B7C
:10042000704700BF80B400AF044BDB6C1B0EDBB227
:100430001846BD465DF8047B704700BFB081E00FF1
:1004400080B400AF054BDB6C03F47F031B0CDBB205
:100450001846BD465DF8047B704700BFB081E00FD1
:1004600080B582B000AFFFF7EBFF03464A2B04D004
:10047000792B02D0482B22D023E0144B1B699BB26E
:1004800003F03F039BB21B02FB80104B9B699BB2A6
:1004900003F0F0039AB2FB881343FB800B4BDB693C
:1004A00003F0F0031B099AB2FB881343FB80FB881F
:1004B000B3F5017F01D3064B04E0064B02E0054B88
:1004C00000E0002318460837BD4680BDD0FF0FE08E
:1004D00000366E010048E80180B584B000AF786056
:1004E00039607A683B689A4294BF00230123DBB2EB
:1004F000FB6006481E21FA68FFF74EFF04480821FA
:10050000FA68FFF749FF1037BD4680BD00800C40F8
:1005100004800C4080B582B000AF07481E21FFF771
:1005200051FF786005480821FFF74CFF38607B6871
:1005300018460837BD4680BD00800C4004800C4042
:1005400080B582B000AF214B5B6903F4E063B3F583
:10055000007F1CD0B3F5007F05D8002B25D0B3F564
:10056000807F1FD02AE0B3F5C06F24D0B3F5E06FD1
:100570001ED0B3F5407F21D1FFF754FF0346122B65
:1005800002D9134B7B601CE0124B7B6019E0FFF734
:1005900049FF0346122B02D90F4B7B6011E00F4B32
:1005A0007B600EE00E4B7B600BE00E4B7B6008E047
:1005B0000D4B7B6005E00D4B7B6002E000237B6010
:1005C00000BF7B6818460837BD4680BD00800C40E0
:1005D000804F120040420F0040B56400C0CF6A0057
:1005E000C0D8A700809FD500406F4001003FAB01FD
:1005F00080B582B000AF0D4800F08EFA0346FB7064
:10060000FB78072B05D0082B07D100F06FFF78602F
:1006100006E0FFF795FF786002E000237B6000BFF3
:100620007B6818460837BD4680BD00BF06000C0039
:1006300080B485B000AF7860284BDB6B002B0CBF1B
:1006400000230123BB72254B41F67132DA63234B41
:100650005B6803F00703FB60FB68012B01D9042BE7
:1006600002D10023FB7202E00123FB7200BF7A6813
:100670001B4B9A4207D9FB7A002B01D0052300E0DF
:100680000423FB6016E07A68154B9A420BD87A680F
:10069000144B9A4207D9FB7A002B01D0032300E0C8
:1006A0000123FB6006E0FB7A002B01D0022300E06F
:1006B0000023FB60094B094A526822F00701FA68DF
:1006C0000A435A60BB7A002B02D0044B0022DA6343
:1006D0001437BD465DF8047B704700BF00000C4036
:1006E0000048E8010024F40080B500AF00F0F4FEFB
:1006F00003461846FFF79CFF80BD00BF90B585B04C
:1007000000AF78600023BB607B68344A934203D01B
:10071000334A934200D000E000BF786800F0FCF953
:100720000346FB607B682D4A934203D02C4A9342D8
:1007300006D00CE02B4B9B6A03F00303FB6006E042
:10074000284B9B6A03F00C039B08FB6000BFFB680F
:10075000032B3AD801A252F823F000BF9307000000
:100760006D070000750700007D07000000F050FFD6
:10077000B8602DE000F060FFB86029E000F092FE64
:100780000446FFF7C7FE0346013324FA03F3BB60B8
:100790001EE00023BB607A68104B9A4203D07A684F
:1007A0000F4B9A4210D10F4B9A6A79680B4B9942C2
:1007B00001D1102300E0142322FA03F3002B03D00D
:1007C00000F030FFB86003E002E00023BB6000BF30
:1007D000BB6818461437BD4690BD00BF0200180024
:1007E00003001A0000800C4080B483B000AF786032
:1007F000094B5B6D03F00103002B00D006E000BF46
:10080000054B1A6D7B681340002BF9D10C37BD46A0
:100810005DF8047B704700BF00800C4080B582B05B
:1008200000AF104800F078F90346FB70FB78032B0B
:1008300007D0082B09D0022B0BD100F0FDFE786009
:100840000AE000F0E5FE786006E000F04FFE786018
:1008500002E000237B6000BF7B6818460837BD4676
:1008600080BD00BF0723200090B587B000AF78603F
:100870000B46FB7000233B617B681B0A03F00F03F0
:10088000013B092B49D801A252F823F0D1080000FE
:10089000D7080000B50800001B0900001B09000074
:1008A000DD080000E70800001B0900001B0900002C
:1008B000F10800001B4B7B611B4800F041F8044627
:1008C000FFF7CEFD034620461946FFF705FE12E06E
:1008D000164B7B610FE0164B7B610CE0154B7B6187
:1008E00001233B6107E0144B7B6110233B6102E075
:1008F000124B7B6100BF7B681B0B03F01F03FB6087
:100900003B69002B02D03869FFF76EFFFB787869EE
:10091000F9681A46FFF740FD00E000BF1C37BD46EE
:1009200090BD00BF40800C400043020008800C4096
:1009300044800C4058800C4060800C4078800C4013
:1009400090B585B000AF78607B6803F47813B3F599
:10095000A01F00F0AB80B3F5A01F1AD8B3F5402F4D
:1009600000F0BF80B3F5402F08D8B3F5003F3CD06E
:10097000B3F5802F2DD0002B27D0BEE0B3F5801F1C
:100980003CD0B3F5901F47D0B3F5602F00F0AD8099
:10099000B3E0B3F5001F00F0AC80B3F5001F0AD838
:1009A000B3F5C01F25D0B3F5D01F7AD0B3F5B01F73
:1009B00000F08980A1E0B3F5181F4ED0B3F5201FD9
:1009C00062D0B3F5101F35D097E000F08FFDF860CE
:1009D00096E000F08BFDF8604C4B9B6803F00F0332
:1009E000FA6822FA03F3FB608AE000F05BFDF8602E
:1009F00086E04748FFF782FEF86081E04448FFF751
:100A00007DFEF860414B9B6E03F0F0031B09FA6812
:100A100022FA03F3FB6073E03D48FFF76FFEF860D6
:100A20003A4B9B6E03F470631B0AFA6822FA03F3D5
:100A3000FB6065E03648FFF761FEF860334B9B6E64
:100A400003F440531C0B1020FFF7D2FC0346234451
:100A5000FA6822FA03F3FB6052E02D48FFF74EFEDE
:100A6000F8602A4B9B6E03F440531B0BFA6822FA82
:100A700003F3FB60254BDB6F03F007030133FA68D8
:100A8000B2FBF3F3FB603BE02148FFF737FEF86071
:100A90001E4B9B6E03F00303FA6822FA03F3FB601C
:100AA0002EE01C48FFF72AFEF86029E01948FFF7FE
:100AB00025FEF860154B1B6F03F00303FA6822FA5A
:100AC00003F3FB601CE01348FFF718FEF8600F4BC0
:100AD0001B6F03F030031B09FA6822FA03F3FB6073
:100AE0000EE0FFF785FDF8600AE0FFF729FDF860EA
:100AF00006E0FFF793FEF86002E00023FB6000BF12
:100B0000FB6818461437BD4690BD00BF00800C40FE
:100B10000200180003001A0080B485B000AF7860AE
:100B20000123FB737B6803F00F03BB60BB68013BD1
:100B3000062B00F2938001A252F823F0590B00001B
:100B40008F0B0000CB0B00005D0C00005D0C000063
:100B5000070C0000290C0000454BDB6A03F47053BE
:100B6000B3F5805F09D0B3F5005F03D0B3F5006F34
:100B700006D008E00223FB7308E00323FB7305E0C3
:100B80000423FB7302E00523FB7300BF69E0384BCD
:100B90009B6A03F00303022B06D0032B07D0012B23
:100BA00008D10323FB730FE00223FB730CE0062341
:100BB000FB7309E02E4B9B6A03F48033002B02D0B9
:100BC0000923FB7300E000BF4BE0294B9B6A03F055
:100BD0000C03082B06D00C2B07D0042B08D10323C1
:100BE000FB730FE00223FB730CE00623FB7309E0A9
:100BF0001F4B9B6A03F48013002B02D00923FB7365
:100C000000E000BF2DE01A4B1B6803F08053002B5F
:100C100003D0B3F1805F03D023E00723FB7302E02E
:100C20000823FB7300BF1CE0114BDB6A03F4603345
:100C3000B3F5803F08D0B3F5003F08D0B3F5004FBF
:100C400008D10823FB7308E00223FB7305E00323AC
:100C5000FB7302E00123FB7300BF02E00023FB7380
:100C600000BFFB7B18461437BD465DF8047B704718
:100C700000800C4090B589B000AF78600B46FB70E7
:100C80000323FB610323FB7600233B617B6803F0B6
:100C90000F03FB60FB68013B062B00F2348101A2CD
:100CA00052F823F0C10C0000AD0D0000AD0D0000A6
:100CB000070F0000070F0000750E00009F0E0000D8
:100CC000FB78023B072B00F2228101A252F823F0AD
:100CD000F10C0000FB0C0000050D00004F0D0000A2
:100CE0000F0F00000F0F00000F0F00000F0F00008C
:100CF0000423FB610023FB7639E00323FB6101231E
:100D0000FB7634E00223FB610223FB76FFF7A8FBAE
:100D100003465C1CFFF7A4FB034620461946FFF779
:100D2000DBFB00F063FC02467C4B9A4206D97C4B0D
:100D30007B4A126842F060021A6018E0784B784AE9
:100D4000126822F0600242F020021A600FE00123D4
:100D5000FB610323FB76FFF783FB03465C1CFFF775
:100D60007FFB034620461946FFF7B6FB00BFFB7E1C
:100D700018460121012200F0D9F8FFF7B5FC684BB5
:100D8000FA695A626748FFF7DBFD0446FFF768FB24
:100D9000034620461946FFF79FFB00F093F900F049
:100DA00081FBB860B868FFF743FCADE0FB78013B1E
:100DB000082B00F2AE8001A252F823F0E10D0000F2
:100DC000E70D0000F70D0000130F0000130F0000E7
:100DD000070E0000130F0000130F00002B0E000081
:100DE00000237B6126E000200121012200F09EF813
:100DF00002237B611EE001200121012200F096F810
:100E000001237B6116E000F04DFBB860FFF728FB83
:100E10000346B8681946FFF75FFB434804210122E7
:100E2000FFF7BAFA03237B6104E000237B6101230F
:100E30003B6100BFFB68022B0DD1394A384B9B6ADE
:100E400023F4803323F00303796919433B691B04BE
:100E50000B43936258E0324A314B9B6A23F4801370
:100E600023F00C037969890019433B691B050B4387
:100E7000936249E0FB78072B02D0082B07D049E0AA
:100E8000274B274A126822F080521A6006E0244B52
:100E9000234A126842F080521A6000BF34E0FB78A7
:100EA000032B14D0082B22D0022B00D032E00020DC
:100EB0000121012200F03AF8194B40225A6200BF8A
:100EC000174BDB6A03F48033002BF9D01AE00120C2
:100ED0000121012200F02AF8114B60225A6200BF62
:100EE0000F4BDB6A03F40033002BF9D00AE00C4B04
:100EF00020225A6200BF0A4BDB6A03F40043002B36
:100F0000F9D000BF00E000BFFFF704FB02E000BF24
:100F100000E000BF2437BD4690BD00BF0048E80197
:100F200000800C400043020040800C4080B586B039
:100F300000AF13460246FA710A46BA717B71FB791B
:100F4000042B4AD801A252F823F000BF990F0000E9
:100F50008B0F00006F0F0000610F00007D0F00007D
:100F600001233B610223FB6001237B611DE004231D
:100F70003B610823FB6003237B6116E010233B6188
:100F80002023FB6005237B610FE040233B6180232E
:100F9000FB6007237B6108E04FF480733B614FF4F3
:100FA0000073FB6009237B6100BFBB79002B0ED06F
:100FB0000C4B3A691A627B79002B0BD000BF0A48B0
:100FC0007969FFF7FFF90346002BF8D002E0054BE3
:100FD000FA681A6200F076F800E000BF1837BD46E4
:100FE00080BD00BF00800C402C800C4080B58AB0D2
:100FF00000AF334B03F580531B68BB61304B03F5E7
:1010000080530C331B68BA691340BB612C4B9B6B3C
:101010007B61BA697B6913403B620023FB6149E055
:1010200000237B623BE03B6A03F00103002B30D0DE
:10103000234B9B683B6101227B6A02FA03F3FB604E
:101040001F4B03F580530833FA681A607B6A1B0153
:101050003A691344DB68BB60BB68002B19D0BB68DE
:101060001B7A7B60BB681B7A83F00103DAB2BB6832
:101070001A72BB681B68002B0BD0BB681B68786AB0
:101080007A68002A0CBF00220122D1B2BA685268E5
:1010900098473B6A5B083B627B6A01337B623B6A31
:1010A000002BC0D17B69DA43BB6913403B62FB690B
:1010B0000133FB61FB69012BB2DD2837BD4680BDE2
:1010C00000200C4080B400AF034BDA6A034B1A6077
:1010D000BD465DF8047B704700800C409000002006
:1010E00080B483B000AF03463960FB71FB79002BFD
:1010F0000DD0FB79012B0AD0FB79022B07D0FB79AD
:10110000032B04D0FB79042B01D0FB79052B094874
:10111000FA793B68012101FA03F319461346DB0013
:1011200013449B000344103359600C37BD465DF8EF
:10113000047B70470060004080B483B000AF03467A
:101140003960FB71FB79002B0DD0FB79012B0AD0A4
:10115000FB79022B07D0FB79032B04D0FB79042BFE
:1011600001D0FB79052B0948FA793B68012101FA86
:1011700003F319461346DB0013449B00034410336A
:1011800019600C37BD465DF8047B70470060004075
:1011900090B585B000AFB9607B600346FB73134622
:1011A000BB73FB7B002B0DD0FB7B012B0AD0FB7BA1
:1011B000022B07D0FB7B032B04D0FB7B042B01D03D
:1011C000FB7B052BBB7B002B0DD07B68002B05D058
:1011D000FB7B1846B968FFF7AFFF04E0FB7B1846BE
:1011E000B968FFF77DFFBB68072B1DD82B48FA7B3A
:1011F0002A4CF97B0B46DB000B449B0023445968C7
:10120000BB689B000F2404FA03F3DB431940BC7B4B
:10121000BB689B0004FA03F319431346DB00134435
:101220009B000344596024E01C48FA7B1B4CF97B6B
:101230000B46DB000B449B00234408331968BB6852
:1012400003F18043083B9B000F2404FA03F3DB43C4
:101250001940BC7BBB6803F18043083B9B0004FA48
:1012600003F319431346DB0013449B000344083384
:101270001960BB7B002B0DD17B68002B05D0FB7B5D
:101280001846B968FFF758FF04E0FB7B1846B968B9
:10129000FFF726FF1437BD4690BD00BF0060004039
:1012A00080B487B000AFF860B9607A60FA68114B1B
:1012B0009A4208D1BB68012B05D87B681B0C1B0424
:1012C000002B00D100BFBB68002B02D0012B04D043
:1012D0000AE0FB6810337B6103E0FB6814337B6139
:1012E00000BF7B697A681A601C37BD465DF8047BD5
:1012F000704700BF0020084080B485B000AF786020
:1013000039600023FB603B681B7883F00103DBB28C
:10131000002B08D07B689B6803F00103002B02D0F0
:101320007B6802225A603B685B78002B03D0FB6825
:1013300043F48053FB603B689B78002B03D0FB6831
:1013400043F48063FB603B68DB78002B03D0FB68D1
:1013500043F40063FB603B681B79002B03D0FB6800
:1013600043F40073FB603B685B79002B03D0FB68A0
:1013700043F48073FB603B689B79002B03D0FB68D0
:1013800043F04003FB603B68DB79002B03D0FB6834
:1013900043F08003FB603B681B7A9B00FA681343B1
:1013A000FB603B685B7A1B01FA681343FB603B6898
:1013B0009B7AFA681343FB607B68FA681A603B68A3
:1013C0001B78002B08D07B689B6803F00103002B7F
:1013D00002D17B6801225A601437BD465DF8047B58
:1013E000704700BF80B485B000AF7860194B5B696F
:1013F000DBB203F00F03DBB29B00FB73154B1B69E1
:1014000003F0C0039B09DAB2FB7B1343FB737B68D9
:10141000FA7B9A700F4B1B69DBB203F03F03DAB221
:101420007B685A700B4B9B69DBB223F00F03FB7395
:10143000084BDB6903F0F0031B09DAB2FB7B1343B3
:10144000FB737B68FA7B1A701437BD465DF8047B2A
:10145000704700BFD0FF0FE0064880470649074AA3
:10146000074B9A42BEBF51F8040B42F8040BF8E751
:10147000FEF760FE051600000417000000000020C3
:1014800074000020FEE700BF80B400AF044BDB6CAB
:101490001B0EDBB21846BD465DF8047B704700BFEB
:1014A000B081E00F80B582B000AF00F01FF8786027
:1014B000074B5B6803F00F037A6822FA03F37B6043
:1014C000044B7A681A607B6818460837BD4680BDB1
:1014D00000800C409400002080B400AF024B1846FE
:1014E000BD465DF8047B7047006CDC0280B582B0BD
:1014F00000AF334BDB6A03F47053B3F5805F0AD05F
:10150000B3F5005F03D0B3F5006F08D00BE02D4BAF
:101510001B687B6047E04FF400437B6043E02A4B4D
:101520001B687B603FE0264BDB6803F4E063B3F5A8
:10153000007F1BD0B3F5007F05D8002B24D0B3F576
:10154000807F16D02BE0B3F5806F09D0B3F5A06F84
:1015500003D0B3F5407F06D021E01C4B7B6021E037
:101560001B4B7B601EE01B4B7B601BE01A4B7B60C0
:1015700018E0FFF789FF0346122B02D9174B7B6057
:1015800010E0174B7B600DE0FFF77EFF0346122B48
:1015900002D9144B7B6005E0134B7B6002E0002313
:1015A0007B6000BF00BF064B1B6803F4E0339B0B5E
:1015B00001337A68B2FBF3F318460837BD4680BDA5
:1015C00000800C400400002000000020003FAB0120
:1015D000406F4001809FD500C0D8A70040B564008F
:1015E000C0CF6A00804F120040420F0080B400AFAD
:1015F000034B1B681846BD465DF8047B704700BF6F
:101600000000002080B400AFBD465DF8047B704749
:1016100080B400AF4FF400431846BD465DF8047B2C
:10162000704700BF80B400AF4FF47A731846BD46D0
:101630005DF8047B704700BF80B400AF034B1B68AC
:101640001846BD465DF8047B704700BF04000020CB
:1016500008B5074B044613B10021AFF30080054BDA
:101660001868836A03B19847204600F033F800BF3A
:1016700000000000F416000070B50E4B0E4D002463
:10168000ED1AAD101E46AC4204D056F82420904707
:101690000134F8E700F020F8084D094B0024ED1A5A
:1016A000AD101E46AC4204D056F8242090470134B9
:1016B000F8E770BD68000020680000206C00002082
:1016C0006800002002440346934202D003F8011B45
:1016D000FAE77047FEE700BFF8B500BFF8BC08BCEA
:1016E0009E467047F8B500BFF8BC08BC9E467047E0
:0C16F00043000000080000200000000083
:0816FC0038EAFF7F0100000045
:10170400006CDC020080000000000000000000000B
:1017140000000000000000000000000000000000C5
:101724000000000000000000F016000000000000AF
:1017340000000000000000000000000000000000A5
:101744000000000000000000000000000000000095
:101754000000000000000000000000000000000085
:10176400000000000000000005010000E10000008E
:041774000000000071
:04000003000014598C
:00000001FF
